:020000000A28CC
:10000800FE00030EF2000A08F300A6280B280130B0
:10001800A50083010F28703083168F00FF308312EC
:10002800850083169F0183128510051183168501AB
:1000380083129F01073099008B178B158316960141
:10004800161405148514051583122503031D762837
:100058008230A100DD30A000A00B3028A10B302891
:1000680035288316851009308312A200A030A1001C
:10007800CA30A000A00B3E28A10B3E28A20B3E28A8
:100088008316051104308312A2003030A10093308A
:10009800A000A00B4D28A10B4D28A20B4D281E3007
:1000A8008312A3000430A400533078204330782012
:1000B8004530782057307820BC308312A1000130B9
:1000C800A000A00B6528A10B65286A288312A40B41
:1000D8005828A3032308031D5628831685140515DD
:1000E8008312A50163002828F600F901F701F70A31
:1000F800831685140B30F5006230F400F40B822867
:10010800F50B822800000830790203189A2876082F
:10011800F8007708F80578088316031D95288514D4
:1001280096288510F90A0310F70D7E288316851086
:100138001530F500C630F400F40BA028F50BA02804
:1001480000000800831205080518BA288B138230AE
:10015800F100DD30F000F00BAF28F10BAF28B42828
:1001680083120518B9280130A5008B170B107308E6
:0C0178008A00720E8300FE0E7E0E09004D
:02400E00F5F0CB
:00000001FF
