:020000000A28CC
:10000800FE00030EF2000A08F300C0280B28013096
:10001800A50083010F28703083168F00FF308312EC
:10002800850083169F0183128510051183168501AB
:1000380083129F01073099008B178B158316960141
:10004800161405148514051583122503031D90281D
:100058008230A100DD30A000A00B3028A10B302891
:1000680035288316851009308312A200A030A1001C
:10007800CA30A000A00B3E28A10B3E28A20B3E28A8
:100088008316051104308312A2003030A10093308A
:10009800A000A00B4D28A10B4D28A20B4D281E3007
:1000A8008312A3000430A4005330922043309220DE
:1000B800453092206B28413092207A284530922092
:1000C8007A28493092207A28573092207A28831249
:1000D8002408013A03196828033A03196528013AE4
:1000E80003196228073A03195F287A28BC3083125B
:1000F800A1000130A000A00B7F28A10B7F28842835
:100108008312A40B5828A3032308031D562883161B
:10011800851405158312A50163002828F600F90146
:10012800F701F70A831685140B30F5006230F400E6
:10013800F40B9C28F50B9C28000008307902031862
:10014800B4287608F8007708F80578088316031DA0
:10015800AF288514B0288510F90A0310F70D9828E0
:10016800831685101530F500C630F400F40BBA2854
:10017800F50BBA2800000800831205080518D428D2
:100188008B138230F100DD30F000F00BC928F10B41
:10019800C928CE2883120518D3280130A5008B174B
:1001A8000B1073088A00720E8300FE0E7E0E090083
:02400E00F5F0CB
:00000001FF
